{
  "_format": "hh-sol-artifact-1",
  "contractName": "CryptoTaxi",
  "sourceName": "contracts/CryptoTaxi.sol",
  "abi": [
    {
      "inputs": [
        {
          "internalType": "address payable",
          "name": "_tokenBurner",
          "type": "address"
        }
      ],
      "stateMutability": "nonpayable",
      "type": "constructor"
    },
    {
      "anonymous": false,
      "inputs": [
        {
          "indexed": false,
          "internalType": "uint256",
          "name": "userId",
          "type": "uint256"
        },
        {
          "indexed": false,
          "internalType": "uint8",
          "name": "level",
          "type": "uint8"
        }
      ],
      "name": "BuyLevel",
      "type": "event"
    },
    {
      "anonymous": false,
      "inputs": [
        {
          "indexed": false,
          "internalType": "uint256",
          "name": "userId",
          "type": "uint256"
        },
        {
          "indexed": false,
          "internalType": "uint8",
          "name": "level",
          "type": "uint8"
        },
        {
          "indexed": false,
          "internalType": "uint16",
          "name": "newMaxPayouts",
          "type": "uint16"
        }
      ],
      "name": "IncreaseLevelMaxPayouts",
      "type": "event"
    },
    {
      "anonymous": false,
      "inputs": [
        {
          "indexed": false,
          "internalType": "uint256",
          "name": "userId",
          "type": "uint256"
        },
        {
          "indexed": false,
          "internalType": "uint8",
          "name": "level",
          "type": "uint8"
        }
      ],
      "name": "LevelDeactivation",
      "type": "event"
    },
    {
      "anonymous": false,
      "inputs": [
        {
          "indexed": false,
          "internalType": "uint256",
          "name": "userId",
          "type": "uint256"
        },
        {
          "indexed": false,
          "internalType": "uint8",
          "name": "level",
          "type": "uint8"
        },
        {
          "indexed": false,
          "internalType": "uint256",
          "name": "rewardValue",
          "type": "uint256"
        },
        {
          "indexed": false,
          "internalType": "uint256",
          "name": "fromUserId",
          "type": "uint256"
        }
      ],
      "name": "LevelPayout",
      "type": "event"
    },
    {
      "anonymous": false,
      "inputs": [
        {
          "indexed": false,
          "internalType": "uint256",
          "name": "referrerId",
          "type": "uint256"
        },
        {
          "indexed": false,
          "internalType": "uint256",
          "name": "referralId",
          "type": "uint256"
        },
        {
          "indexed": false,
          "internalType": "uint8",
          "name": "level",
          "type": "uint8"
        },
        {
          "indexed": false,
          "internalType": "uint256",
          "name": "rewardValue",
          "type": "uint256"
        }
      ],
      "name": "MissedReferralPayout",
      "type": "event"
    },
    {
      "anonymous": false,
      "inputs": [
        {
          "indexed": false,
          "internalType": "uint256",
          "name": "referrerId",
          "type": "uint256"
        },
        {
          "indexed": false,
          "internalType": "uint256",
          "name": "referralId",
          "type": "uint256"
        },
        {
          "indexed": false,
          "internalType": "uint8",
          "name": "level",
          "type": "uint8"
        },
        {
          "indexed": false,
          "internalType": "uint256",
          "name": "rewardValue",
          "type": "uint256"
        }
      ],
      "name": "ReferralPayout",
      "type": "event"
    },
    {
      "anonymous": false,
      "inputs": [
        {
          "indexed": false,
          "internalType": "uint256",
          "name": "referralId",
          "type": "uint256"
        },
        {
          "indexed": false,
          "internalType": "uint256",
          "name": "referrerId",
          "type": "uint256"
        }
      ],
      "name": "UserRegistration",
      "type": "event"
    },
    {
      "inputs": [],
      "name": "REGISTRATION_PRICE",
      "outputs": [
        {
          "internalType": "uint256",
          "name": "",
          "type": "uint256"
        }
      ],
      "stateMutability": "view",
      "type": "function"
    },
    {
      "inputs": [],
      "name": "REWARDPAYOUTS",
      "outputs": [
        {
          "internalType": "uint8",
          "name": "",
          "type": "uint8"
        }
      ],
      "stateMutability": "view",
      "type": "function"
    },
    {
      "inputs": [],
      "name": "REWARD_PERCENTS",
      "outputs": [
        {
          "internalType": "uint8",
          "name": "",
          "type": "uint8"
        }
      ],
      "stateMutability": "view",
      "type": "function"
    },
    {
      "inputs": [],
      "name": "TOKEN_BUYER_PERCENTS",
      "outputs": [
        {
          "internalType": "uint8",
          "name": "",
          "type": "uint8"
        }
      ],
      "stateMutability": "view",
      "type": "function"
    },
    {
      "inputs": [
        {
          "internalType": "uint8",
          "name": "level",
          "type": "uint8"
        }
      ],
      "name": "buyLevel",
      "outputs": [],
      "stateMutability": "payable",
      "type": "function"
    },
    {
      "inputs": [],
      "name": "getContractBalance",
      "outputs": [
        {
          "internalType": "uint256",
          "name": "",
          "type": "uint256"
        }
      ],
      "stateMutability": "view",
      "type": "function"
    },
    {
      "inputs": [],
      "name": "getGlobalStatistic",
      "outputs": [
        {
          "internalType": "uint256[3]",
          "name": "result",
          "type": "uint256[3]"
        }
      ],
      "stateMutability": "view",
      "type": "function"
    },
    {
      "inputs": [],
      "name": "getLevelPrices",
      "outputs": [
        {
          "internalType": "uint256[]",
          "name": "",
          "type": "uint256[]"
        }
      ],
      "stateMutability": "view",
      "type": "function"
    },
    {
      "inputs": [
        {
          "internalType": "uint8",
          "name": "level",
          "type": "uint8"
        }
      ],
      "name": "getLevelTime",
      "outputs": [
        {
          "internalType": "uint256",
          "name": "",
          "type": "uint256"
        }
      ],
      "stateMutability": "view",
      "type": "function"
    },
    {
      "inputs": [
        {
          "internalType": "address",
          "name": "userAddress",
          "type": "address"
        },
        {
          "internalType": "uint8",
          "name": "level",
          "type": "uint8"
        }
      ],
      "name": "getPlaceInQueue",
      "outputs": [
        {
          "internalType": "uint256",
          "name": "",
          "type": "uint256"
        }
      ],
      "stateMutability": "view",
      "type": "function"
    },
    {
      "inputs": [
        {
          "internalType": "uint8",
          "name": "level",
          "type": "uint8"
        }
      ],
      "name": "getQueueOrder",
      "outputs": [
        {
          "internalType": "uint256[]",
          "name": "",
          "type": "uint256[]"
        }
      ],
      "stateMutability": "view",
      "type": "function"
    },
    {
      "inputs": [
        {
          "internalType": "address",
          "name": "userAddress",
          "type": "address"
        }
      ],
      "name": "getReferrer",
      "outputs": [
        {
          "internalType": "address",
          "name": "",
          "type": "address"
        }
      ],
      "stateMutability": "view",
      "type": "function"
    },
    {
      "inputs": [
        {
          "internalType": "address",
          "name": "userAddress",
          "type": "address"
        }
      ],
      "name": "getReferrerId",
      "outputs": [
        {
          "internalType": "uint256",
          "name": "",
          "type": "uint256"
        }
      ],
      "stateMutability": "view",
      "type": "function"
    },
    {
      "inputs": [
        {
          "internalType": "address",
          "name": "userAddress",
          "type": "address"
        }
      ],
      "name": "getUser",
      "outputs": [
        {
          "internalType": "uint256",
          "name": "",
          "type": "uint256"
        },
        {
          "internalType": "uint256",
          "name": "",
          "type": "uint256"
        },
        {
          "internalType": "uint256",
          "name": "",
          "type": "uint256"
        },
        {
          "internalType": "address",
          "name": "",
          "type": "address"
        },
        {
          "internalType": "uint256",
          "name": "",
          "type": "uint256"
        },
        {
          "internalType": "uint256",
          "name": "",
          "type": "uint256"
        },
        {
          "internalType": "uint256",
          "name": "",
          "type": "uint256"
        }
      ],
      "stateMutability": "view",
      "type": "function"
    },
    {
      "inputs": [
        {
          "internalType": "uint256",
          "name": "userId",
          "type": "uint256"
        }
      ],
      "name": "getUserAddressById",
      "outputs": [
        {
          "internalType": "address",
          "name": "",
          "type": "address"
        }
      ],
      "stateMutability": "view",
      "type": "function"
    },
    {
      "inputs": [
        {
          "internalType": "address",
          "name": "userAddress",
          "type": "address"
        }
      ],
      "name": "getUserIdByAddress",
      "outputs": [
        {
          "internalType": "uint256",
          "name": "",
          "type": "uint256"
        }
      ],
      "stateMutability": "view",
      "type": "function"
    },
    {
      "inputs": [
        {
          "internalType": "address",
          "name": "userAddress",
          "type": "address"
        }
      ],
      "name": "getUserLevels",
      "outputs": [
        {
          "internalType": "bool[]",
          "name": "",
          "type": "bool[]"
        },
        {
          "internalType": "uint16[]",
          "name": "",
          "type": "uint16[]"
        },
        {
          "internalType": "uint16[]",
          "name": "",
          "type": "uint16[]"
        },
        {
          "internalType": "uint16[]",
          "name": "",
          "type": "uint16[]"
        },
        {
          "internalType": "uint256[]",
          "name": "",
          "type": "uint256[]"
        },
        {
          "internalType": "uint256[]",
          "name": "",
          "type": "uint256[]"
        }
      ],
      "stateMutability": "view",
      "type": "function"
    },
    {
      "inputs": [
        {
          "internalType": "address",
          "name": "addr",
          "type": "address"
        }
      ],
      "name": "isContract",
      "outputs": [
        {
          "internalType": "bool",
          "name": "",
          "type": "bool"
        }
      ],
      "stateMutability": "view",
      "type": "function"
    },
    {
      "inputs": [
        {
          "internalType": "address",
          "name": "addr",
          "type": "address"
        }
      ],
      "name": "isUserRegistered",
      "outputs": [
        {
          "internalType": "bool",
          "name": "",
          "type": "bool"
        }
      ],
      "stateMutability": "view",
      "type": "function"
    },
    {
      "inputs": [
        {
          "internalType": "uint256",
          "name": "",
          "type": "uint256"
        }
      ],
      "name": "levelPrice",
      "outputs": [
        {
          "internalType": "uint256",
          "name": "",
          "type": "uint256"
        }
      ],
      "stateMutability": "view",
      "type": "function"
    },
    {
      "inputs": [],
      "name": "owner",
      "outputs": [
        {
          "internalType": "address payable",
          "name": "",
          "type": "address"
        }
      ],
      "stateMutability": "view",
      "type": "function"
    },
    {
      "inputs": [
        {
          "internalType": "uint256",
          "name": "",
          "type": "uint256"
        }
      ],
      "name": "referralRewardPercents",
      "outputs": [
        {
          "internalType": "uint256",
          "name": "",
          "type": "uint256"
        }
      ],
      "stateMutability": "view",
      "type": "function"
    },
    {
      "inputs": [],
      "name": "register",
      "outputs": [],
      "stateMutability": "payable",
      "type": "function"
    },
    {
      "inputs": [
        {
          "internalType": "address",
          "name": "referrer",
          "type": "address"
        }
      ],
      "name": "registerWithReferrer",
      "outputs": [],
      "stateMutability": "payable",
      "type": "function"
    },
    {
      "inputs": [
        {
          "internalType": "address payable",
          "name": "_tokenBurner",
          "type": "address"
        }
      ],
      "name": "setTokenBurner",
      "outputs": [],
      "stateMutability": "nonpayable",
      "type": "function"
    },
    {
      "inputs": [],
      "name": "tokenBurner",
      "outputs": [
        {
          "internalType": "address payable",
          "name": "",
          "type": "address"
        }
      ],
      "stateMutability": "view",
      "type": "function"
    },
    {
      "inputs": [
        {
          "internalType": "uint8",
          "name": "level",
          "type": "uint8"
        }
      ],
      "name": "transferPayout",
      "outputs": [],
      "stateMutability": "payable",
      "type": "function"
    },
    {
      "stateMutability": "payable",
      "type": "receive"
    }
  ],
  "bytecode": "0x6080604052604051806101600160405280600060ff168152602001600860ff168152602001600560ff168152602001600360ff168152602001600260ff168152602001600160ff168152602001600160ff168152602001600160ff168152602001600160ff168152602001600160ff168152602001600160ff16815250600190600b6200008e9291906200086c565b5060018080549050620000a2919062000984565b600255604051806102a00160405280600068ffffffffffffffffff16815260200166b1a2bc2ec5000068ffffffffffffffffff16815260200166f8b0a10e47000068ffffffffffffffffff16815260200167016345785d8a000068ffffffffffffffffff1681526020016701f161421c8e000068ffffffffffffffffff1681526020016702c68af0bb14000068ffffffffffffffffff1681526020016703e2c284391c000068ffffffffffffffffff16815260200167058d15e17628000068ffffffffffffffffff1681526020016707a1fe160277000068ffffffffffffffffff168152602001670b1a2bc2ec50000068ffffffffffffffffff168152602001670f43fc2c04ee000068ffffffffffffffffff1681526020016716345785d8a0000068ffffffffffffffffff168152602001671e87f85809dc000068ffffffffffffffffff168152602001672c68af0bb140000068ffffffffffffffffff168152602001673d0ff0b013b8000068ffffffffffffffffff168152602001675a34a38fc00a000068ffffffffffffffffff168152602001676f05b59d3b20000068ffffffffffffffffff168152602001678ac7230489e8000068ffffffffffffffffff16815260200167ad78ebc5ac62000068ffffffffffffffffff16815260200167de0b6b3a7640000068ffffffffffffffffff1681526020016801158e460913d0000068ffffffffffffffffff168152506005906015620002c6929190620008c3565b506001600580549050620002db919062000984565b6007556002600855348015620002f057600080fd5b5060405162005d5738038062005d57833981810160405281019062000316919062000958565b600160008190555033600360006101000a81548173ffffffffffffffffffffffffffffffffffffffff021916908373ffffffffffffffffffffffffffffffffffffffff16021790555080600460006101000a81548173ffffffffffffffffffffffffffffffffffffffff021916908373ffffffffffffffffffffffffffffffffffffffff1602179055506161a860066000601260ff1681526020019081526020016000208190555061c35060066000601360ff16815260200190815260200160002081905550620186a060066000601460ff16815260200190815260200160002081905550600160096000600360009054906101000a900473ffffffffffffffffffffffffffffffffffffffff1673ffffffffffffffffffffffffffffffffffffffff1673ffffffffffffffffffffffffffffffffffffffff168152602001908152602001600020600001819055504260096000600360009054906101000a900473ffffffffffffffffffffffffffffffffffffffff1673ffffffffffffffffffffffffffffffffffffffff1673ffffffffffffffffffffffffffffffffffffffff16815260200190815260200160002060010181905550600060096000600360009054906101000a900473ffffffffffffffffffffffffffffffffffffffff1673ffffffffffffffffffffffffffffffffffffffff1673ffffffffffffffffffffffffffffffffffffffff16815260200190815260200160002060020160006101000a81548173ffffffffffffffffffffffffffffffffffffffff021916908373ffffffffffffffffffffffffffffffffffffffff160217905550600360009054906101000a900473ffffffffffffffffffffffffffffffffffffffff16600a60006001815260200190815260200160002060006101000a81548173ffffffffffffffffffffffffffffffffffffffff021916908373ffffffffffffffffffffffffffffffffffffffff160217905550600d6000016000815480929190620005ff9062000a0a565b9190505550600d60010160008154809291906200061c9062000a0a565b91905055506000600190505b6007548160ff16116200086457600160096000600360009054906101000a900473ffffffffffffffffffffffffffffffffffffffff1673ffffffffffffffffffffffffffffffffffffffff1673ffffffffffffffffffffffffffffffffffffffff16815260200190815260200160002060070160008360ff1660ff16815260200190815260200160002060000160046101000a81548160ff021916908315150217905550600060096000600360009054906101000a900473ffffffffffffffffffffffffffffffffffffffff1673ffffffffffffffffffffffffffffffffffffffff1673ffffffffffffffffffffffffffffffffffffffff16815260200190815260200160002060070160008360ff1660ff16815260200190815260200160002060040160008061ffff16815260200190815260200160002060010160006101000a81548160ff02191690836002811115620007ad577f4e487b7100000000000000000000000000000000000000000000000000000000600052602160045260246000fd5b0217905550600b60008260ff1660ff168152602001908152602001600020600360009054906101000a900473ffffffffffffffffffffffffffffffffffffffff169080600181540180825580915050600190039060005260206000200160009091909190916101000a81548173ffffffffffffffffffffffffffffffffffffffff021916908373ffffffffffffffffffffffffffffffffffffffff16021790555080806200085b9062000a58565b91505062000628565b505062000ad0565b828054828255906000526020600020908101928215620008b0579160200282015b82811115620008af578251829060ff169055916020019190600101906200088d565b5b509050620008bf919062000922565b5090565b8280548282559060005260206000209081019282156200090f579160200282015b828111156200090e578251829068ffffffffffffffffff16905591602001919060010190620008e4565b5b5090506200091e919062000922565b5090565b5b808211156200093d57600081600090555060010162000923565b5090565b600081519050620009528162000ab6565b92915050565b6000602082840312156200096b57600080fd5b60006200097b8482850162000941565b91505092915050565b60006200099182620009f3565b91506200099e83620009f3565b925082821015620009b457620009b362000a87565b5b828203905092915050565b6000620009cc82620009d3565b9050919050565b600073ffffffffffffffffffffffffffffffffffffffff82169050919050565b6000819050919050565b600060ff82169050919050565b600062000a1782620009f3565b91507fffffffffffffffffffffffffffffffffffffffffffffffffffffffffffffffff82141562000a4d5762000a4c62000a87565b5b600182019050919050565b600062000a6582620009fd565b915060ff82141562000a7c5762000a7b62000a87565b5b600182019050919050565b7f4e487b7100000000000000000000000000000000000000000000000000000000600052601160045260246000fd5b62000ac181620009bf565b811462000acd57600080fd5b50565b6152778062000ae06000396000f3fe60806040526004361061019f5760003560e01c80638d17a4d0116100ec578063bd4616f41161008a578063c2809e4611610064578063c2809e46146106e3578063cfce504414610720578063f517bd2b1461075d578063faceda331461078857610280565b8063bd4616f41461063e578063bd4b77ee1461067b578063c1665776146106b857610280565b8063aad049b3116100c6578063aad049b31461056b578063b0566497146105a8578063b0af768b146105ea578063b132064a1461061357610280565b80638d17a4d0146105085780638da5cb5b14610524578063968763a01461054f57610280565b80632a2c908e116101595780634a9fefc7116101335780634a9fefc7146104205780636f77926b1461045d5780636f9fb98a146104a05780638a03ad86146104cb57610280565b80632a2c908e1461037b578063385399f9146103a6578063409df742146103e357610280565b8062cd6d5c1461028557806316279055146102a1578063163f7522146102de5780631aa3a0081461031b5780632663e0b5146103255780632996f9721461035057610280565b36610280576101ad336107b3565b6101be576101b9610802565b61027e565b6000600190505b6007548160ff1611610242573460058260ff168154811061020f577f4e487b7100000000000000000000000000000000000000000000000000000000600052603260045260246000fd5b9060005260206000200154141561022f576102298161082f565b5061027e565b808061023a90614d8e565b9150506101c5565b506040517f08c379a00000000000000000000000000000000000000000000000000000000081526004016102759061489b565b60405180910390fd5b005b600080fd5b61029f600480360381019061029a9190614034565b6117ef565b005b3480156102ad57600080fd5b506102c860048036038101906102c39190613f7d565b6121a5565b6040516102d59190614680565b60405180910390f35b3480156102ea57600080fd5b5061030560048036038101906103009190613f7d565b6107b3565b6040516103129190614680565b60405180910390f35b610323610802565b005b34801561033157600080fd5b5061033a6121bf565b604051610347919061491b565b60405180910390f35b34801561035c57600080fd5b506103656121ca565b604051610372919061459d565b60405180910390f35b34801561038757600080fd5b506103906121f0565b60405161039d9190614643565b60405180910390f35b3480156103b257600080fd5b506103cd60048036038101906103c89190613f7d565b612227565b6040516103da919061491b565b60405180910390f35b3480156103ef57600080fd5b5061040a60048036038101906104059190614034565b612273565b604051610417919061465e565b60405180910390f35b34801561042c57600080fd5b5061044760048036038101906104429190613f7d565b61244b565b6040516104549190614582565b60405180910390f35b34801561046957600080fd5b50610484600480360381019061047f9190613f7d565b6124ff565b604051610497979695949392919061495f565b60405180910390f35b3480156104ac57600080fd5b506104b561277a565b6040516104c2919061491b565b60405180910390f35b3480156104d757600080fd5b506104f260048036038101906104ed919061400b565b612782565b6040516104ff9190614582565b60405180910390f35b610522600480360381019061051d9190614034565b61082f565b005b34801561053057600080fd5b506105396127bf565b604051610546919061459d565b60405180910390f35b61056960048036038101906105649190613f7d565b6127e5565b005b34801561057757600080fd5b50610592600480360381019061058d919061400b565b612d97565b60405161059f919061491b565b60405180910390f35b3480156105b457600080fd5b506105cf60048036038101906105ca9190613f7d565b612dbb565b6040516105e1969594939291906145b8565b60405180910390f35b3480156105f657600080fd5b50610611600480360381019061060c9190613fa6565b61348e565b005b34801561061f57600080fd5b50610628613562565b604051610635919061465e565b60405180910390f35b34801561064a57600080fd5b506106656004803603810190610660919061400b565b6135ba565b604051610672919061491b565b60405180910390f35b34801561068757600080fd5b506106a2600480360381019061069d9190613f7d565b6135de565b6040516106af919061491b565b60405180910390f35b3480156106c457600080fd5b506106cd613691565b6040516106da9190614a81565b60405180910390f35b3480156106ef57600080fd5b5061070a60048036038101906107059190614034565b613696565b604051610717919061491b565b60405180910390f35b34801561072c57600080fd5b5061074760048036038101906107429190613fcf565b6136fc565b604051610754919061491b565b60405180910390f35b34801561076957600080fd5b506107726138d5565b60405161077f9190614a81565b60405180910390f35b34801561079457600080fd5b5061079d6138da565b6040516107aa9190614a81565b60405180910390f35b600080600960008473ffffffffffffffffffffffffffffffffffffffff1673ffffffffffffffffffffffffffffffffffffffff1681526020019081526020016000206000015414159050919050565b61082d600360009054906101000a900473ffffffffffffffffffffffffffffffffffffffff166127e5565b565b60026000541415610875576040517f08c379a000000000000000000000000000000000000000000000000000000000815260040161086c906148fb565b60405180910390fd5b6002600081905550610886336107b3565b6108c5576040517f08c379a00000000000000000000000000000000000000000000000000000000081526004016108bc906147fb565b60405180910390fd5b60008160ff161180156108dd57506007548160ff1611155b61091c576040517f08c379a00000000000000000000000000000000000000000000000000000000081526004016109139061483b565b60405180910390fd5b3460058260ff168154811061095a577f4e487b7100000000000000000000000000000000000000000000000000000000600052603260045260246000fd5b9060005260206000200154146109a5576040517f08c379a000000000000000000000000000000000000000000000000000000000815260040161099c9061481b565b60405180910390fd5b600660008260ff1660ff16815260200190815260200160002054600d600001541015610a06576040517f08c379a00000000000000000000000000000000000000000000000000000000081526004016109fd9061471b565b60405180910390fd5b610a0f336121a5565b15610a4f576040517f08c379a0000000000000000000000000000000000000000000000000000000008152600401610a46906148db565b60405180910390fd5b6000600190505b8160ff168160ff161015610b2057600960003373ffffffffffffffffffffffffffffffffffffffff1673ffffffffffffffffffffffffffffffffffffffff16815260200190815260200160002060070160008260ff1660ff16815260200190815260200160002060000160049054906101000a900460ff16610b0d576040517f08c379a0000000000000000000000000000000000000000000000000000000008152600401610b04906146bb565b60405180910390fd5b8080610b1890614d8e565b915050610a56565b50600d6001016000815480929190610b3790614d45565b919050555034600d6002016000828254610b519190614b90565b92505081905550600960003373ffffffffffffffffffffffffffffffffffffffff1673ffffffffffffffffffffffffffffffffffffffff16815260200190815260200160002060070160008260ff1660ff16815260200190815260200160002060000160049054906101000a900460ff16610e7d576001600960003373ffffffffffffffffffffffffffffffffffffffff1673ffffffffffffffffffffffffffffffffffffffff16815260200190815260200160002060070160008360ff1660ff16815260200190815260200160002060000160046101000a81548160ff02191690831515021790555042600960003373ffffffffffffffffffffffffffffffffffffffff1673ffffffffffffffffffffffffffffffffffffffff16815260200190815260200160002060070160008360ff1660ff1681526020019081526020016000206003018190555060005b60038161ffff161015610d86576000600960003373ffffffffffffffffffffffffffffffffffffffff1673ffffffffffffffffffffffffffffffffffffffff16815260200190815260200160002060070160008460ff1660ff16815260200190815260200160002060040160008361ffff1661ffff16815260200190815260200160002060010160006101000a81548160ff02191690836002811115610d6e577f4e487b7100000000000000000000000000000000000000000000000000000000600052602160045260246000fd5b02179055508080610d7e90614d1a565b915050610c9f565b50600b60008260ff1660ff168152602001908152602001600020339080600181540180825580915050600190039060005260206000200160009091909190916101000a81548173ffffffffffffffffffffffffffffffffffffffff021916908373ffffffffffffffffffffffffffffffffffffffff1602179055507f4ca9aae0bcfd6d092d32c37441e66f64b394013f781f2367824e154099603565600960003373ffffffffffffffffffffffffffffffffffffffff1673ffffffffffffffffffffffffffffffffffffffff1681526020019081526020016000206000015482604051610e74929190614a13565b60405180910390a15b6000600b60008360ff1660ff168152602001908152602001600020600081548110610ed1577f4e487b7100000000000000000000000000000000000000000000000000000000600052603260045260246000fd5b9060005260206000200160009054906101000a900473ffffffffffffffffffffffffffffffffffffffff1690506001600960008373ffffffffffffffffffffffffffffffffffffffff1673ffffffffffffffffffffffffffffffffffffffff16815260200190815260200160002060070160008460ff1660ff1681526020019081526020016000206004016000600960008573ffffffffffffffffffffffffffffffffffffffff1673ffffffffffffffffffffffffffffffffffffffff16815260200190815260200160002060070160008660ff1660ff16815260200190815260200160002060000160009054906101000a900461ffff1661ffff1661ffff16815260200190815260200160002060010160006101000a81548160ff0219169083600281111561102a577f4e487b7100000000000000000000000000000000000000000000000000000000600052602160045260246000fd5b0217905550600960008273ffffffffffffffffffffffffffffffffffffffff1673ffffffffffffffffffffffffffffffffffffffff16815260200190815260200160002060070160008360ff1660ff168152602001908152602001600020600001600081819054906101000a900461ffff16809291906110a990614d1a565b91906101000a81548161ffff021916908361ffff16021790555050600360ff16600960008373ffffffffffffffffffffffffffffffffffffffff1673ffffffffffffffffffffffffffffffffffffffff16815260200190815260200160002060070160008460ff1660ff16815260200190815260200160002060000160009054906101000a900461ffff1661ffff161415611392576000600960008373ffffffffffffffffffffffffffffffffffffffff1673ffffffffffffffffffffffffffffffffffffffff16815260200190815260200160002060070160008460ff1660ff16815260200190815260200160002060000160046101000a81548160ff0219169083151502179055506000600960008373ffffffffffffffffffffffffffffffffffffffff1673ffffffffffffffffffffffffffffffffffffffff16815260200190815260200160002060070160008460ff1660ff16815260200190815260200160002060000160006101000a81548161ffff021916908361ffff16021790555060005b60038161ffff161015611315576000600960008473ffffffffffffffffffffffffffffffffffffffff1673ffffffffffffffffffffffffffffffffffffffff16815260200190815260200160002060070160008560ff1660ff16815260200190815260200160002060040160008361ffff1661ffff16815260200190815260200160002060010160006101000a81548160ff021916908360028111156112fd577f4e487b7100000000000000000000000000000000000000000000000000000000600052602160045260246000fd5b0217905550808061130d90614d1a565b91505061122e565b507fae9c7cc1b10b0aa2e208296b682cc0000383f83093814233542a7c2eaf7e27d5600960008373ffffffffffffffffffffffffffffffffffffffff1673ffffffffffffffffffffffffffffffffffffffff1681526020019081526020016000206000015483604051611389929190614a13565b60405180910390a15b60005b6001600b60008560ff1660ff168152602001908152602001600020805490506113be9190614c71565b811015611620576000600b60008560ff1660ff1681526020019081526020016000208281548110611418577f4e487b7100000000000000000000000000000000000000000000000000000000600052603260045260246000fd5b9060005260206000200160009054906101000a900473ffffffffffffffffffffffffffffffffffffffff169050600b60008560ff1660ff16815260200190815260200160002060018361146b9190614b90565b815481106114a2577f4e487b7100000000000000000000000000000000000000000000000000000000600052603260045260246000fd5b9060005260206000200160009054906101000a900473ffffffffffffffffffffffffffffffffffffffff16600b60008660ff1660ff168152602001908152602001600020838154811061151e577f4e487b7100000000000000000000000000000000000000000000000000000000600052603260045260246000fd5b9060005260206000200160006101000a81548173ffffffffffffffffffffffffffffffffffffffff021916908373ffffffffffffffffffffffffffffffffffffffff16021790555080600b60008660ff1660ff16815260200190815260200160002060018461158d9190614b90565b815481106115c4577f4e487b7100000000000000000000000000000000000000000000000000000000600052603260045260246000fd5b9060005260206000200160006101000a81548173ffffffffffffffffffffffffffffffffffffffff021916908373ffffffffffffffffffffffffffffffffffffffff16021790555050808061161890614d45565b915050611395565b506000606460058460ff1681548110611662577f4e487b7100000000000000000000000000000000000000000000000000000000600052603260045260246000fd5b90600052602060002001546116779190614be6565b90506000600190505b6002548160ff161161170357600060018260ff16815481106116cb577f4e487b7100000000000000000000000000000000000000000000000000000000600052603260045260246000fd5b9060005260206000200154836116e19190614c17565b90506116ef338387846138df565b5080806116fb90614d8e565b915050611680565b506000600460009054906101000a900473ffffffffffffffffffffffffffffffffffffffff1673ffffffffffffffffffffffffffffffffffffffff16600260ff168361174f9190614c17565b60405161175b9061456d565b60006040518083038185875af1925050503d8060008114611798576040519150601f19603f3d011682016040523d82523d6000602084013e61179d565b606091505b50509050806117e1576040517f08c379a00000000000000000000000000000000000000000000000000000000081526004016117d8906146db565b60405180910390fd5b505050600160008190555050565b6117f8336107b3565b611837576040517f08c379a000000000000000000000000000000000000000000000000000000000815260040161182e9061473b565b60405180910390fd5b62015180600960003373ffffffffffffffffffffffffffffffffffffffff1673ffffffffffffffffffffffffffffffffffffffff16815260200190815260200160002060070160008360ff1660ff168152602001908152602001600020600301546118a29190614b90565b4210156118e4576040517f08c379a00000000000000000000000000000000000000000000000000000000081526004016118db9061475b565b60405180910390fd5b600960003373ffffffffffffffffffffffffffffffffffffffff1673ffffffffffffffffffffffffffffffffffffffff16815260200190815260200160002060070160008260ff1660ff16815260200190815260200160002060000160049054906101000a900460ff1661198d576040517f08c379a00000000000000000000000000000000000000000000000000000000081526004016119849061479b565b60405180910390fd5b6000600960003373ffffffffffffffffffffffffffffffffffffffff1673ffffffffffffffffffffffffffffffffffffffff16815260200190815260200160002060070160008360ff1660ff1681526020019081526020016000206003015490506000606460058460ff1681548110611a2f577f4e487b7100000000000000000000000000000000000000000000000000000000600052603260045260246000fd5b9060005260206000200154611a449190614be6565b90506000604a60ff1682611a589190614c17565b905060005b600360ff168161ffff16101561219e57600280811115611aa6577f4e487b7100000000000000000000000000000000000000000000000000000000600052602160045260246000fd5b600960003373ffffffffffffffffffffffffffffffffffffffff1673ffffffffffffffffffffffffffffffffffffffff16815260200190815260200160002060070160008760ff1660ff16815260200190815260200160002060040160008361ffff1661ffff16815260200190815260200160002060010160009054906101000a900460ff166002811115611b64577f4e487b7100000000000000000000000000000000000000000000000000000000600052602160045260246000fd5b1415611bea57600960003373ffffffffffffffffffffffffffffffffffffffff1673ffffffffffffffffffffffffffffffffffffffff16815260200190815260200160002060070160008660ff1660ff16815260200190815260200160002060040160008261ffff1661ffff16815260200190815260200160002060000154935061218b565b60016002811115611c24577f4e487b7100000000000000000000000000000000000000000000000000000000600052602160045260246000fd5b600960003373ffffffffffffffffffffffffffffffffffffffff1673ffffffffffffffffffffffffffffffffffffffff16815260200190815260200160002060070160008760ff1660ff16815260200190815260200160002060040160008361ffff1661ffff16815260200190815260200160002060010160009054906101000a900460ff166002811115611ce2577f4e487b7100000000000000000000000000000000000000000000000000000000600052602160045260246000fd5b14611d22576040517f08c379a0000000000000000000000000000000000000000000000000000000008152600401611d19906147db565b60405180910390fd5b603c84611d2f9190614b90565b421015611d71576040517f08c379a0000000000000000000000000000000000000000000000000000000008152600401611d689061469b565b60405180910390fd5b60003373ffffffffffffffffffffffffffffffffffffffff166108fc849081150290604051600060405180830381858888f19350505050905042600960003373ffffffffffffffffffffffffffffffffffffffff1673ffffffffffffffffffffffffffffffffffffffff16815260200190815260200160002060070160008860ff1660ff16815260200190815260200160002060040160008461ffff1661ffff168152602001908152602001600020600001819055506002600960003373ffffffffffffffffffffffffffffffffffffffff1673ffffffffffffffffffffffffffffffffffffffff16815260200190815260200160002060070160008860ff1660ff16815260200190815260200160002060040160008461ffff1661ffff16815260200190815260200160002060010160006101000a81548160ff02191690836002811115611ee9577f4e487b7100000000000000000000000000000000000000000000000000000000600052602160045260246000fd5b0217905550801561211b5782600960003373ffffffffffffffffffffffffffffffffffffffff1673ffffffffffffffffffffffffffffffffffffffff16815260200190815260200160002060070160008860ff1660ff1681526020019081526020016000206001016000828254611f609190614b90565b92505081905550600960003373ffffffffffffffffffffffffffffffffffffffff1673ffffffffffffffffffffffffffffffffffffffff16815260200190815260200160002060070160008760ff1660ff168152602001908152602001600020600001600281819054906101000a900461ffff1680929190611fe190614d1a565b91906101000a81548161ffff021916908361ffff1602179055505082600960003373ffffffffffffffffffffffffffffffffffffffff1673ffffffffffffffffffffffffffffffffffffffff168152602001908152602001600020600501600082825461204e9190614b90565b925050819055507fb970429b721aab5042efe513b75b71cd07615fdff866744e3d07dfe5998ffc66600960003373ffffffffffffffffffffffffffffffffffffffff1673ffffffffffffffffffffffffffffffffffffffff168152602001908152602001600020600001548785600960003373ffffffffffffffffffffffffffffffffffffffff1673ffffffffffffffffffffffffffffffffffffffff1681526020019081526020016000206000015460405161210e9493929190614a3c565b60405180910390a1612185565b600360009054906101000a900473ffffffffffffffffffffffffffffffffffffffff1673ffffffffffffffffffffffffffffffffffffffff166108fc849081150290604051600060405180830381858888f19350505050158015612183573d6000803e3d6000fd5b505b5061219e565b808061219690614d1a565b915050611a5d565b5050505050565b600080823b905060008163ffffffff161415915050919050565b6658d15e1762800081565b600460009054906101000a900473ffffffffffffffffffffffffffffffffffffffff1681565b6121f8613f07565b6040518060600160405280600d600001548152602001600d600101548152602001600d60020154815250905090565b6000600960008373ffffffffffffffffffffffffffffffffffffffff1673ffffffffffffffffffffffffffffffffffffffff168152602001908152602001600020600001549050919050565b60606000600b60008460ff1660ff1681526020019081526020016000208054905067ffffffffffffffff8111156122d3577f4e487b7100000000000000000000000000000000000000000000000000000000600052604160045260246000fd5b6040519080825280602002602001820160405280156123015781602001602082028036833780820191505090505b50905060005b600b60008560ff1660ff168152602001908152602001600020805490508110156124415760096000600b60008760ff1660ff1681526020019081526020016000208381548110612380577f4e487b7100000000000000000000000000000000000000000000000000000000600052603260045260246000fd5b9060005260206000200160009054906101000a900473ffffffffffffffffffffffffffffffffffffffff1673ffffffffffffffffffffffffffffffffffffffff1673ffffffffffffffffffffffffffffffffffffffff16815260200190815260200160002060000154828281518110612422577f4e487b7100000000000000000000000000000000000000000000000000000000600052603260045260246000fd5b602002602001018181525050808061243990614d45565b915050612307565b5080915050919050565b6000612456826107b3565b612495576040517f08c379a000000000000000000000000000000000000000000000000000000000815260040161248c906147fb565b60405180910390fd5b600960008373ffffffffffffffffffffffffffffffffffffffff1673ffffffffffffffffffffffffffffffffffffffff16815260200190815260200160002060020160009054906101000a900473ffffffffffffffffffffffffffffffffffffffff169050919050565b6000806000806000806000600960008973ffffffffffffffffffffffffffffffffffffffff1673ffffffffffffffffffffffffffffffffffffffff16815260200190815260200160002060000154600960008a73ffffffffffffffffffffffffffffffffffffffff1673ffffffffffffffffffffffffffffffffffffffff1681526020019081526020016000206001015460096000600960008d73ffffffffffffffffffffffffffffffffffffffff1673ffffffffffffffffffffffffffffffffffffffff16815260200190815260200160002060020160009054906101000a900473ffffffffffffffffffffffffffffffffffffffff1673ffffffffffffffffffffffffffffffffffffffff1673ffffffffffffffffffffffffffffffffffffffff16815260200190815260200160002060000154600960008c73ffffffffffffffffffffffffffffffffffffffff1673ffffffffffffffffffffffffffffffffffffffff16815260200190815260200160002060020160009054906101000a900473ffffffffffffffffffffffffffffffffffffffff16600960008d73ffffffffffffffffffffffffffffffffffffffff1673ffffffffffffffffffffffffffffffffffffffff16815260200190815260200160002060030154600960008e73ffffffffffffffffffffffffffffffffffffffff1673ffffffffffffffffffffffffffffffffffffffff16815260200190815260200160002060040154600960008f73ffffffffffffffffffffffffffffffffffffffff1673ffffffffffffffffffffffffffffffffffffffff168152602001908152602001600020600501549650965096509650965096509650919395979092949650565b600047905090565b6000600a600083815260200190815260200160002060009054906101000a900473ffffffffffffffffffffffffffffffffffffffff169050919050565b600360009054906101000a900473ffffffffffffffffffffffffffffffffffffffff1681565b6658d15e17628000341461282e576040517f08c379a00000000000000000000000000000000000000000000000000000000081526004016128259061477b565b60405180910390fd5b612837816107b3565b612876576040517f08c379a000000000000000000000000000000000000000000000000000000000815260040161286d906148bb565b60405180910390fd5b61287f336107b3565b156128bf576040517f08c379a00000000000000000000000000000000000000000000000000000000081526004016128b69061485b565b60405180910390fd5b6128c8336121a5565b15612908576040517f08c379a00000000000000000000000000000000000000000000000000000000081526004016128ff906148db565b60405180910390fd5b6001600960003373ffffffffffffffffffffffffffffffffffffffff1673ffffffffffffffffffffffffffffffffffffffff1681526020019081526020016000206000018190555042600960003373ffffffffffffffffffffffffffffffffffffffff1673ffffffffffffffffffffffffffffffffffffffff168152602001908152602001600020600101819055506000600960003373ffffffffffffffffffffffffffffffffffffffff1673ffffffffffffffffffffffffffffffffffffffff16815260200190815260200160002060020160006101000a81548173ffffffffffffffffffffffffffffffffffffffff021916908373ffffffffffffffffffffffffffffffffffffffff16021790555033600a6000600960003373ffffffffffffffffffffffffffffffffffffffff1673ffffffffffffffffffffffffffffffffffffffff16815260200190815260200160002060000154815260200190815260200160002060006101000a81548173ffffffffffffffffffffffffffffffffffffffff021916908373ffffffffffffffffffffffffffffffffffffffff16021790555060006001905060008290505b6002548260ff1611158015612afb5750600073ffffffffffffffffffffffffffffffffffffffff168173ffffffffffffffffffffffffffffffffffffffff1614155b15612bd057600960008273ffffffffffffffffffffffffffffffffffffffff1673ffffffffffffffffffffffffffffffffffffffff1681526020019081526020016000206003016000815480929190612b5390614d45565b9190505550600960008273ffffffffffffffffffffffffffffffffffffffff1673ffffffffffffffffffffffffffffffffffffffff16815260200190815260200160002060020160009054906101000a900473ffffffffffffffffffffffffffffffffffffffff1690508180612bc890614d8e565b925050612ab9565b6000600460009054906101000a900473ffffffffffffffffffffffffffffffffffffffff1673ffffffffffffffffffffffffffffffffffffffff1634604051612c189061456d565b60006040518083038185875af1925050503d8060008114612c55576040519150601f19603f3d011682016040523d82523d6000602084013e612c5a565b606091505b5050905080612c9e576040517f08c379a0000000000000000000000000000000000000000000000000000000008152600401612c95906146fb565b60405180910390fd5b600d6000016000815480929190612cb490614d45565b9190505550600d6001016000815480929190612ccf90614d45565b91905055507fe6b34214a32a78e29411662ba4d4be9a6d67ca3577a746c3cdc0c53e4694f09a600960003373ffffffffffffffffffffffffffffffffffffffff1673ffffffffffffffffffffffffffffffffffffffff16815260200190815260200160002060000154600960008773ffffffffffffffffffffffffffffffffffffffff1673ffffffffffffffffffffffffffffffffffffffff16815260200190815260200160002060000154604051612d89929190614936565b60405180910390a150505050565b60058181548110612da757600080fd5b906000526020600020016000915090505481565b60608060608060608060006001600754612dd59190614b90565b67ffffffffffffffff811115612e14577f4e487b7100000000000000000000000000000000000000000000000000000000600052604160045260246000fd5b604051908082528060200260200182016040528015612e425781602001602082028036833780820191505090505b50905060006001600754612e569190614b90565b67ffffffffffffffff811115612e95577f4e487b7100000000000000000000000000000000000000000000000000000000600052604160045260246000fd5b604051908082528060200260200182016040528015612ec35781602001602082028036833780820191505090505b50905060006001600754612ed79190614b90565b67ffffffffffffffff811115612f16577f4e487b7100000000000000000000000000000000000000000000000000000000600052604160045260246000fd5b604051908082528060200260200182016040528015612f445781602001602082028036833780820191505090505b50905060006001600754612f589190614b90565b67ffffffffffffffff811115612f97577f4e487b7100000000000000000000000000000000000000000000000000000000600052604160045260246000fd5b604051908082528060200260200182016040528015612fc55781602001602082028036833780820191505090505b50905060006001600754612fd99190614b90565b67ffffffffffffffff811115613018577f4e487b7100000000000000000000000000000000000000000000000000000000600052604160045260246000fd5b6040519080825280602002602001820160405280156130465781602001602082028036833780820191505090505b5090506000600160075461305a9190614b90565b67ffffffffffffffff811115613099577f4e487b7100000000000000000000000000000000000000000000000000000000600052604160045260246000fd5b6040519080825280602002602001820160405280156130c75781602001602082028036833780820191505090505b5090506000600190505b6007548160ff161161346c57600960008f73ffffffffffffffffffffffffffffffffffffffff1673ffffffffffffffffffffffffffffffffffffffff16815260200190815260200160002060070160008260ff1660ff16815260200190815260200160002060000160049054906101000a900460ff16878260ff1681518110613183577f4e487b7100000000000000000000000000000000000000000000000000000000600052603260045260246000fd5b602002602001019015159081151581525050600960008f73ffffffffffffffffffffffffffffffffffffffff1673ffffffffffffffffffffffffffffffffffffffff16815260200190815260200160002060070160008260ff1660ff16815260200190815260200160002060000160029054906101000a900461ffff16868260ff168151811061323c577f4e487b7100000000000000000000000000000000000000000000000000000000600052603260045260246000fd5b602002602001019061ffff16908161ffff1681525050600960008f73ffffffffffffffffffffffffffffffffffffffff1673ffffffffffffffffffffffffffffffffffffffff16815260200190815260200160002060070160008260ff1660ff16815260200190815260200160002060000160009054906101000a900461ffff16848260ff16815181106132f9577f4e487b7100000000000000000000000000000000000000000000000000000000600052603260045260246000fd5b602002602001019061ffff16908161ffff1681525050600960008f73ffffffffffffffffffffffffffffffffffffffff1673ffffffffffffffffffffffffffffffffffffffff16815260200190815260200160002060070160008260ff1660ff16815260200190815260200160002060010154838260ff16815181106133a8577f4e487b7100000000000000000000000000000000000000000000000000000000600052603260045260246000fd5b602002602001018181525050600960008f73ffffffffffffffffffffffffffffffffffffffff1673ffffffffffffffffffffffffffffffffffffffff16815260200190815260200160002060070160008260ff1660ff16815260200190815260200160002060020154828260ff168151811061344d577f4e487b7100000000000000000000000000000000000000000000000000000000600052603260045260246000fd5b602002602001018181525050808061346490614d8e565b9150506130d1565b508585858585859b509b509b509b509b509b5050505050505091939550919395565b600360009054906101000a900473ffffffffffffffffffffffffffffffffffffffff1673ffffffffffffffffffffffffffffffffffffffff163373ffffffffffffffffffffffffffffffffffffffff161461351e576040517f08c379a0000000000000000000000000000000000000000000000000000000008152600401613515906147bb565b60405180910390fd5b80600460006101000a81548173ffffffffffffffffffffffffffffffffffffffff021916908373ffffffffffffffffffffffffffffffffffffffff16021790555050565b606060058054806020026020016040519081016040528092919081815260200182805480156135b057602002820191906000526020600020905b81548152602001906001019080831161359c575b5050505050905090565b600181815481106135ca57600080fd5b906000526020600020016000915090505481565b600080600960008473ffffffffffffffffffffffffffffffffffffffff1673ffffffffffffffffffffffffffffffffffffffff16815260200190815260200160002060020160009054906101000a900473ffffffffffffffffffffffffffffffffffffffff169050600960008273ffffffffffffffffffffffffffffffffffffffff1673ffffffffffffffffffffffffffffffffffffffff16815260200190815260200160002060000154915050919050565b600281565b6000600960003373ffffffffffffffffffffffffffffffffffffffff1673ffffffffffffffffffffffffffffffffffffffff16815260200190815260200160002060070160008360ff1660ff168152602001908152602001600020600301549050919050565b6000808260ff1611801561371557506007548260ff1611155b613754576040517f08c379a000000000000000000000000000000000000000000000000000000000815260040161374b9061483b565b60405180910390fd5b600960008473ffffffffffffffffffffffffffffffffffffffff1673ffffffffffffffffffffffffffffffffffffffff16815260200190815260200160002060070160008360ff1660ff16815260200190815260200160002060000160049054906101000a900460ff166137cb57600090506138cf565b60005b600b60008460ff1660ff168152602001908152602001600020805490508110156138c9578373ffffffffffffffffffffffffffffffffffffffff16600b60008560ff1660ff168152602001908152602001600020828154811061385a577f4e487b7100000000000000000000000000000000000000000000000000000000600052603260045260246000fd5b9060005260206000200160009054906101000a900473ffffffffffffffffffffffffffffffffffffffff1673ffffffffffffffffffffffffffffffffffffffff1614156138b6576001816138ae9190614b90565b9150506138cf565b80806138c190614d45565b9150506137ce565b50600080fd5b92915050565b600381565b604a81565b60008360ff1611613925576040517f08c379a000000000000000000000000000000000000000000000000000000000815260040161391c9061487b565b60405180910390fd5b6000600190506000600960008773ffffffffffffffffffffffffffffffffffffffff1673ffffffffffffffffffffffffffffffffffffffff16815260200190815260200160002060020160009054906101000a900473ffffffffffffffffffffffffffffffffffffffff1690505b8460ff168260ff16141580156139f75750600360009054906101000a900473ffffffffffffffffffffffffffffffffffffffff1673ffffffffffffffffffffffffffffffffffffffff168173ffffffffffffffffffffffffffffffffffffffff1614155b15613a7457600960008273ffffffffffffffffffffffffffffffffffffffff1673ffffffffffffffffffffffffffffffffffffffff16815260200190815260200160002060020160009054906101000a900473ffffffffffffffffffffffffffffffffffffffff1690508180613a6c90614d8e565b925050613993565b5b600960008273ffffffffffffffffffffffffffffffffffffffff1673ffffffffffffffffffffffffffffffffffffffff16815260200190815260200160002060070160008560ff1660ff16815260200190815260200160002060000160049054906101000a900460ff16158015613b3a5750600360009054906101000a900473ffffffffffffffffffffffffffffffffffffffff1673ffffffffffffffffffffffffffffffffffffffff168173ffffffffffffffffffffffffffffffffffffffff1614155b15613cc35782600960008373ffffffffffffffffffffffffffffffffffffffff1673ffffffffffffffffffffffffffffffffffffffff1681526020019081526020016000206006016000828254613b919190614b90565b925050819055507fe9d5dfc09351e7b04248ed26514ea34cf12373d57d5206d9d46cd2ad5e487055600960008373ffffffffffffffffffffffffffffffffffffffff1673ffffffffffffffffffffffffffffffffffffffff16815260200190815260200160002060000154600960008973ffffffffffffffffffffffffffffffffffffffff1673ffffffffffffffffffffffffffffffffffffffff168152602001908152602001600020600001548686604051613c5194939291906149ce565b60405180910390a1600960008273ffffffffffffffffffffffffffffffffffffffff1673ffffffffffffffffffffffffffffffffffffffff16815260200190815260200160002060020160009054906101000a900473ffffffffffffffffffffffffffffffffffffffff169050613a75565b60008173ffffffffffffffffffffffffffffffffffffffff166108fc859081150290604051600060405180830381858888f1935050505090508015613e945783600960008473ffffffffffffffffffffffffffffffffffffffff1673ffffffffffffffffffffffffffffffffffffffff16815260200190815260200160002060070160008760ff1660ff1681526020019081526020016000206002016000828254613d6e9190614b90565b9250508190555083600960008473ffffffffffffffffffffffffffffffffffffffff1673ffffffffffffffffffffffffffffffffffffffff1681526020019081526020016000206004016000828254613dc79190614b90565b925050819055507f6d8172da503639a6daa587046b28564afbee4369eca5d54e7551a07a591db533600960008473ffffffffffffffffffffffffffffffffffffffff1673ffffffffffffffffffffffffffffffffffffffff16815260200190815260200160002060000154600960008a73ffffffffffffffffffffffffffffffffffffffff1673ffffffffffffffffffffffffffffffffffffffff168152602001908152602001600020600001548787604051613e8794939291906149ce565b60405180910390a1613efe565b600360009054906101000a900473ffffffffffffffffffffffffffffffffffffffff1673ffffffffffffffffffffffffffffffffffffffff166108fc859081150290604051600060405180830381858888f19350505050158015613efc573d6000803e3d6000fd5b505b50505050505050565b6040518060600160405280600390602082028036833780820191505090505090565b600081359050613f38816151e5565b92915050565b600081359050613f4d816151fc565b92915050565b600081359050613f6281615213565b92915050565b600081359050613f778161522a565b92915050565b600060208284031215613f8f57600080fd5b6000613f9d84828501613f29565b91505092915050565b600060208284031215613fb857600080fd5b6000613fc684828501613f3e565b91505092915050565b60008060408385031215613fe257600080fd5b6000613ff085828601613f29565b925050602061400185828601613f68565b9150509250929050565b60006020828403121561401d57600080fd5b600061402b84828501613f53565b91505092915050565b60006020828403121561404657600080fd5b600061405484828501613f68565b91505092915050565b60006140698383614234565b60208301905092915050565b60006140818383614531565b60208301905092915050565b60006140998383614540565b60208301905092915050565b6140ae81614cb7565b82525050565b6140bd81614ca5565b82525050565b60006140ce82614ad6565b6140d88185614b36565b93506140e383614a9c565b8060005b838110156141145781516140fb888261405d565b975061410683614b02565b9250506001810190506140e7565b5085935050505092915050565b600061412c82614ae1565b6141368185614b47565b935061414183614aac565b8060005b838110156141725781516141598882614075565b975061416483614b0f565b925050600181019050614145565b5085935050505092915050565b61418881614aec565b6141928184614b58565b925061419d82614abc565b8060005b838110156141ce5781516141b5878261408d565b96506141c083614b1c565b9250506001810190506141a1565b505050505050565b60006141e182614af7565b6141eb8185614b63565b93506141f683614ac6565b8060005b8381101561422757815161420e888261408d565b975061421983614b29565b9250506001810190506141fa565b5085935050505092915050565b61423d81614cc9565b82525050565b61424c81614cc9565b82525050565b600061425f601b83614b7f565b915061426a82614e16565b602082019050919050565b6000614282602283614b7f565b915061428d82614e3f565b604082019050919050565b60006142a5601e83614b7f565b91506142b082614e8e565b602082019050919050565b60006142c8602483614b7f565b91506142d382614eb7565b604082019050919050565b60006142eb601783614b7f565b91506142f682614f06565b602082019050919050565b600061430e601083614b7f565b915061431982614f2f565b602082019050919050565b6000614331601b83614b7f565b915061433c82614f58565b602082019050919050565b6000614354601283614b7f565b915061435f82614f81565b602082019050919050565b6000614377601e83614b7f565b915061438282614faa565b602082019050919050565b600061439a602983614b7f565b91506143a582614fd3565b604082019050919050565b60006143bd600b83614b7f565b91506143c882615022565b602082019050919050565b60006143e0601683614b7f565b91506143eb8261504b565b602082019050919050565b6000614403601183614b7f565b915061440e82615074565b602082019050919050565b6000614426600d83614b7f565b91506144318261509d565b602082019050919050565b6000614449601783614b7f565b9150614454826150c6565b602082019050919050565b600061446c601e83614b7f565b9150614477826150ef565b602082019050919050565b600061448f603583614b7f565b915061449a82615118565b604082019050919050565b60006144b2600083614b74565b91506144bd82615167565b600082019050919050565b60006144d5601a83614b7f565b91506144e08261516a565b602082019050919050565b60006144f8601583614b7f565b915061450382615193565b602082019050919050565b600061451b601f83614b7f565b9150614526826151bc565b602082019050919050565b61453a81614cd5565b82525050565b61454981614d03565b82525050565b61455881614d03565b82525050565b61456781614d0d565b82525050565b6000614578826144a5565b9150819050919050565b600060208201905061459760008301846140b4565b92915050565b60006020820190506145b260008301846140a5565b92915050565b600060c08201905081810360008301526145d281896140c3565b905081810360208301526145e68188614121565b905081810360408301526145fa8187614121565b9050818103606083015261460e8186614121565b9050818103608083015261462281856141d6565b905081810360a083015261463681846141d6565b9050979650505050505050565b6000606082019050614658600083018461417f565b92915050565b6000602082019050818103600083015261467881846141d6565b905092915050565b60006020820190506146956000830184614243565b92915050565b600060208201905081810360008301526146b481614252565b9050919050565b600060208201905081810360008301526146d481614275565b9050919050565b600060208201905081810360008301526146f481614298565b9050919050565b60006020820190508181036000830152614714816142bb565b9050919050565b60006020820190508181036000830152614734816142de565b9050919050565b6000602082019050818103600083015261475481614301565b9050919050565b6000602082019050818103600083015261477481614324565b9050919050565b6000602082019050818103600083015261479481614347565b9050919050565b600060208201905081810360008301526147b48161436a565b9050919050565b600060208201905081810360008301526147d48161438d565b9050919050565b600060208201905081810360008301526147f4816143b0565b9050919050565b60006020820190508181036000830152614814816143d3565b9050919050565b60006020820190508181036000830152614834816143f6565b9050919050565b6000602082019050818103600083015261485481614419565b9050919050565b600060208201905081810360008301526148748161443c565b9050919050565b600060208201905081810360008301526148948161445f565b9050919050565b600060208201905081810360008301526148b481614482565b9050919050565b600060208201905081810360008301526148d4816144c8565b9050919050565b600060208201905081810360008301526148f4816144eb565b9050919050565b600060208201905081810360008301526149148161450e565b9050919050565b6000602082019050614930600083018461454f565b92915050565b600060408201905061494b600083018561454f565b614958602083018461454f565b9392505050565b600060e082019050614974600083018a61454f565b614981602083018961454f565b61498e604083018861454f565b61499b60608301876140b4565b6149a8608083018661454f565b6149b560a083018561454f565b6149c260c083018461454f565b98975050505050505050565b60006080820190506149e3600083018761454f565b6149f0602083018661454f565b6149fd604083018561455e565b614a0a606083018461454f565b95945050505050565b6000604082019050614a28600083018561454f565b614a35602083018461455e565b9392505050565b6000608082019050614a51600083018761454f565b614a5e602083018661455e565b614a6b604083018561454f565b614a78606083018461454f565b95945050505050565b6000602082019050614a96600083018461455e565b92915050565b6000819050602082019050919050565b6000819050602082019050919050565b6000819050919050565b6000819050602082019050919050565b600081519050919050565b600081519050919050565b600060039050919050565b600081519050919050565b6000602082019050919050565b6000602082019050919050565b6000602082019050919050565b6000602082019050919050565b600082825260208201905092915050565b600082825260208201905092915050565b600081905092915050565b600082825260208201905092915050565b600081905092915050565b600082825260208201905092915050565b6000614b9b82614d03565b9150614ba683614d03565b9250827fffffffffffffffffffffffffffffffffffffffffffffffffffffffffffffffff03821115614bdb57614bda614db8565b5b828201905092915050565b6000614bf182614d03565b9150614bfc83614d03565b925082614c0c57614c0b614de7565b5b828204905092915050565b6000614c2282614d03565b9150614c2d83614d03565b9250817fffffffffffffffffffffffffffffffffffffffffffffffffffffffffffffffff0483118215151615614c6657614c65614db8565b5b828202905092915050565b6000614c7c82614d03565b9150614c8783614d03565b925082821015614c9a57614c99614db8565b5b828203905092915050565b6000614cb082614ce3565b9050919050565b6000614cc282614ce3565b9050919050565b60008115159050919050565b600061ffff82169050919050565b600073ffffffffffffffffffffffffffffffffffffffff82169050919050565b6000819050919050565b600060ff82169050919050565b6000614d2582614cd5565b915061ffff821415614d3a57614d39614db8565b5b600182019050919050565b6000614d5082614d03565b91507fffffffffffffffffffffffffffffffffffffffffffffffffffffffffffffffff821415614d8357614d82614db8565b5b600182019050919050565b6000614d9982614d0d565b915060ff821415614dad57614dac614db8565b5b600182019050919050565b7f4e487b7100000000000000000000000000000000000000000000000000000000600052601160045260246000fd5b7f4e487b7100000000000000000000000000000000000000000000000000000000600052601260045260246000fd5b7f31206d696e75746520646964206e6f7420657870697265207965740000000000600082015250565b7f416c6c2070726576696f7573206c6576656c73206d757374206265206163746960008201527f7665000000000000000000000000000000000000000000000000000000000000602082015250565b7f746f6b656e206275726e206661696c656420746f20627579206c6576656c0000600082015250565b7f746f6b656e206275726e206661696c6564207768696c6520726567697374726160008201527f74696f6e00000000000000000000000000000000000000000000000000000000602082015250565b7f4c6576656c206e6f7420617661696c61626c6520796574000000000000000000600082015250565b7f506c656173652c20726567697374657200000000000000000000000000000000600082015250565b7f323420686f75727320646964206e6f7420657870697265207965740000000000600082015250565b7f496e76616c69642076616c75652073656e740000000000000000000000000000600082015250565b7f596f752068617665206e6f7420626f756768742074686973206c6576656c0000600082015250565b7f4f6e6c79206f776e65722063616e2075706461746520746f6b656e4275726e6560008201527f7220616464726573730000000000000000000000000000000000000000000000602082015250565b7f4e6f74206772616e746564000000000000000000000000000000000000000000600082015250565b7f55736572206973206e6f74207265676973746572656400000000000000000000600082015250565b7f496e76616c696420424e422076616c7565000000000000000000000000000000600082015250565b7f496e76616c6964206c6576656c00000000000000000000000000000000000000600082015250565b7f5573657220616c72656164792072656769737465726564000000000000000000600082015250565b7f4c696e65206d7573742062652067726561746572207468616e207a65726f0000600082015250565b7f43616e27742066696e64206c6576656c20746f206275792e204d61796265207360008201527f656e742076616c756520697320696e76616c69642e0000000000000000000000602082015250565b50565b7f5265666572726572206973206e6f742072656769737465726564000000000000600082015250565b7f43616e206e6f74206265206120636f6e74726163740000000000000000000000600082015250565b7f5265656e7472616e637947756172643a207265656e7472616e742063616c6c00600082015250565b6151ee81614ca5565b81146151f957600080fd5b50565b61520581614cb7565b811461521057600080fd5b50565b61521c81614d03565b811461522757600080fd5b50565b61523381614d0d565b811461523e57600080fd5b5056fea264697066735822122098d4a76a558146c6d8876972a7e1ed4c928b5974862efb2aa8059e32489bd4c964736f6c63430008040033",
  "linkReferences": {},
  "deployedLinkReferences": {}
}