{
  "_format": "hh-sol-artifact-1",
  "contractName": "CryptoTaxi",
  "sourceName": "contracts/CryptoTaxi.sol",
  "abi": [
    {
      "inputs": [
        {
          "internalType": "address payable",
          "name": "_tokenBurner",
          "type": "address"
        }
      ],
      "stateMutability": "nonpayable",
      "type": "constructor"
    },
    {
      "anonymous": false,
      "inputs": [
        {
          "indexed": true,
          "internalType": "uint256",
          "name": "userId",
          "type": "uint256"
        },
        {
          "indexed": false,
          "internalType": "uint8",
          "name": "level",
          "type": "uint8"
        }
      ],
      "name": "BuyLevel",
      "type": "event"
    },
    {
      "anonymous": false,
      "inputs": [
        {
          "indexed": false,
          "internalType": "uint256",
          "name": "userId",
          "type": "uint256"
        },
        {
          "indexed": false,
          "internalType": "uint8",
          "name": "level",
          "type": "uint8"
        },
        {
          "indexed": false,
          "internalType": "uint16",
          "name": "newMaxPayouts",
          "type": "uint16"
        }
      ],
      "name": "IncreaseLevelMaxPayouts",
      "type": "event"
    },
    {
      "anonymous": false,
      "inputs": [
        {
          "indexed": false,
          "internalType": "uint256",
          "name": "userId",
          "type": "uint256"
        },
        {
          "indexed": false,
          "internalType": "uint8",
          "name": "level",
          "type": "uint8"
        }
      ],
      "name": "LevelDeactivation",
      "type": "event"
    },
    {
      "anonymous": false,
      "inputs": [
        {
          "indexed": false,
          "internalType": "uint256",
          "name": "userId",
          "type": "uint256"
        },
        {
          "indexed": false,
          "internalType": "uint8",
          "name": "level",
          "type": "uint8"
        },
        {
          "indexed": false,
          "internalType": "uint256",
          "name": "rewardValue",
          "type": "uint256"
        },
        {
          "indexed": false,
          "internalType": "uint256",
          "name": "fromUserId",
          "type": "uint256"
        }
      ],
      "name": "LevelPayout",
      "type": "event"
    },
    {
      "anonymous": false,
      "inputs": [
        {
          "indexed": false,
          "internalType": "uint256",
          "name": "referrerId",
          "type": "uint256"
        },
        {
          "indexed": false,
          "internalType": "uint256",
          "name": "referralId",
          "type": "uint256"
        },
        {
          "indexed": false,
          "internalType": "uint8",
          "name": "level",
          "type": "uint8"
        },
        {
          "indexed": false,
          "internalType": "uint256",
          "name": "rewardValue",
          "type": "uint256"
        }
      ],
      "name": "MissedReferralPayout",
      "type": "event"
    },
    {
      "anonymous": false,
      "inputs": [
        {
          "indexed": false,
          "internalType": "uint256",
          "name": "referrerId",
          "type": "uint256"
        },
        {
          "indexed": false,
          "internalType": "uint256",
          "name": "referralId",
          "type": "uint256"
        },
        {
          "indexed": false,
          "internalType": "uint8",
          "name": "level",
          "type": "uint8"
        },
        {
          "indexed": false,
          "internalType": "uint256",
          "name": "rewardValue",
          "type": "uint256"
        }
      ],
      "name": "ReferralPayout",
      "type": "event"
    },
    {
      "anonymous": false,
      "inputs": [
        {
          "indexed": true,
          "internalType": "uint256",
          "name": "referralId",
          "type": "uint256"
        },
        {
          "indexed": false,
          "internalType": "uint256",
          "name": "referrerId",
          "type": "uint256"
        }
      ],
      "name": "UserRegistration",
      "type": "event"
    },
    {
      "inputs": [],
      "name": "REWARDPAYOUTS",
      "outputs": [
        {
          "internalType": "uint8",
          "name": "",
          "type": "uint8"
        }
      ],
      "stateMutability": "view",
      "type": "function"
    },
    {
      "inputs": [
        {
          "internalType": "uint8",
          "name": "level",
          "type": "uint8"
        }
      ],
      "name": "buyLevel",
      "outputs": [
        {
          "internalType": "bool",
          "name": "",
          "type": "bool"
        }
      ],
      "stateMutability": "payable",
      "type": "function"
    },
    {
      "inputs": [
        {
          "internalType": "uint256",
          "name": "amount",
          "type": "uint256"
        }
      ],
      "name": "collectFunds",
      "outputs": [
        {
          "internalType": "bool",
          "name": "",
          "type": "bool"
        }
      ],
      "stateMutability": "payable",
      "type": "function"
    },
    {
      "inputs": [
        {
          "internalType": "address",
          "name": "userAddress",
          "type": "address"
        },
        {
          "internalType": "uint256",
          "name": "line",
          "type": "uint256"
        }
      ],
      "name": "find_referrer",
      "outputs": [
        {
          "internalType": "address",
          "name": "refer",
          "type": "address"
        }
      ],
      "stateMutability": "view",
      "type": "function"
    },
    {
      "inputs": [
        {
          "internalType": "address",
          "name": "user",
          "type": "address"
        }
      ],
      "name": "getBalanceOf",
      "outputs": [
        {
          "internalType": "uint256",
          "name": "",
          "type": "uint256"
        }
      ],
      "stateMutability": "view",
      "type": "function"
    },
    {
      "inputs": [],
      "name": "getGlobalStatistic",
      "outputs": [
        {
          "internalType": "uint256[3]",
          "name": "result",
          "type": "uint256[3]"
        }
      ],
      "stateMutability": "view",
      "type": "function"
    },
    {
      "inputs": [],
      "name": "getLevelsTime",
      "outputs": [
        {
          "internalType": "uint256[]",
          "name": "",
          "type": "uint256[]"
        },
        {
          "internalType": "uint256",
          "name": "",
          "type": "uint256"
        }
      ],
      "stateMutability": "view",
      "type": "function"
    },
    {
      "inputs": [
        {
          "internalType": "uint8",
          "name": "level",
          "type": "uint8"
        }
      ],
      "name": "getQueueOrder",
      "outputs": [
        {
          "internalType": "uint256[]",
          "name": "",
          "type": "uint256[]"
        }
      ],
      "stateMutability": "view",
      "type": "function"
    },
    {
      "inputs": [
        {
          "internalType": "address",
          "name": "userAddress",
          "type": "address"
        }
      ],
      "name": "getReferrer",
      "outputs": [
        {
          "internalType": "address",
          "name": "",
          "type": "address"
        }
      ],
      "stateMutability": "view",
      "type": "function"
    },
    {
      "inputs": [
        {
          "internalType": "address",
          "name": "userAddress",
          "type": "address"
        }
      ],
      "name": "getReferrerId",
      "outputs": [
        {
          "internalType": "uint256",
          "name": "",
          "type": "uint256"
        }
      ],
      "stateMutability": "view",
      "type": "function"
    },
    {
      "inputs": [
        {
          "internalType": "uint256",
          "name": "userId",
          "type": "uint256"
        }
      ],
      "name": "getUserAddressById",
      "outputs": [
        {
          "internalType": "address",
          "name": "",
          "type": "address"
        }
      ],
      "stateMutability": "view",
      "type": "function"
    },
    {
      "inputs": [],
      "name": "getUserAndRewardInfo",
      "outputs": [
        {
          "internalType": "uint256",
          "name": "",
          "type": "uint256"
        },
        {
          "internalType": "uint256",
          "name": "",
          "type": "uint256"
        },
        {
          "internalType": "uint256",
          "name": "",
          "type": "uint256"
        },
        {
          "internalType": "address",
          "name": "",
          "type": "address"
        },
        {
          "internalType": "uint256",
          "name": "",
          "type": "uint256"
        },
        {
          "internalType": "uint256",
          "name": "",
          "type": "uint256"
        },
        {
          "internalType": "uint256",
          "name": "",
          "type": "uint256"
        }
      ],
      "stateMutability": "view",
      "type": "function"
    },
    {
      "inputs": [
        {
          "internalType": "address",
          "name": "userAddress",
          "type": "address"
        }
      ],
      "name": "getUserIdByAddress",
      "outputs": [
        {
          "internalType": "uint256",
          "name": "",
          "type": "uint256"
        }
      ],
      "stateMutability": "view",
      "type": "function"
    },
    {
      "inputs": [],
      "name": "getUserLevelsInfo",
      "outputs": [
        {
          "internalType": "bool[]",
          "name": "",
          "type": "bool[]"
        },
        {
          "internalType": "uint256[]",
          "name": "",
          "type": "uint256[]"
        },
        {
          "internalType": "uint256[]",
          "name": "",
          "type": "uint256[]"
        }
      ],
      "stateMutability": "view",
      "type": "function"
    },
    {
      "inputs": [
        {
          "internalType": "address",
          "name": "addr",
          "type": "address"
        }
      ],
      "name": "isContract",
      "outputs": [
        {
          "internalType": "bool",
          "name": "",
          "type": "bool"
        }
      ],
      "stateMutability": "view",
      "type": "function"
    },
    {
      "inputs": [
        {
          "internalType": "address",
          "name": "addr",
          "type": "address"
        }
      ],
      "name": "isUserRegistered",
      "outputs": [
        {
          "internalType": "bool",
          "name": "",
          "type": "bool"
        }
      ],
      "stateMutability": "view",
      "type": "function"
    },
    {
      "inputs": [
        {
          "internalType": "uint256",
          "name": "",
          "type": "uint256"
        }
      ],
      "name": "levelPrice",
      "outputs": [
        {
          "internalType": "uint256",
          "name": "",
          "type": "uint256"
        }
      ],
      "stateMutability": "view",
      "type": "function"
    },
    {
      "inputs": [],
      "name": "owner",
      "outputs": [
        {
          "internalType": "address payable",
          "name": "",
          "type": "address"
        }
      ],
      "stateMutability": "view",
      "type": "function"
    },
    {
      "inputs": [
        {
          "internalType": "uint256",
          "name": "",
          "type": "uint256"
        }
      ],
      "name": "referralRewardPercents",
      "outputs": [
        {
          "internalType": "uint256",
          "name": "",
          "type": "uint256"
        }
      ],
      "stateMutability": "view",
      "type": "function"
    },
    {
      "inputs": [],
      "name": "register",
      "outputs": [],
      "stateMutability": "payable",
      "type": "function"
    },
    {
      "inputs": [
        {
          "internalType": "address",
          "name": "referrer",
          "type": "address"
        }
      ],
      "name": "registerWithReferrer",
      "outputs": [],
      "stateMutability": "payable",
      "type": "function"
    },
    {
      "inputs": [],
      "name": "tokenBurner",
      "outputs": [
        {
          "internalType": "address payable",
          "name": "",
          "type": "address"
        }
      ],
      "stateMutability": "view",
      "type": "function"
    },
    {
      "inputs": [
        {
          "internalType": "uint8",
          "name": "level",
          "type": "uint8"
        }
      ],
      "name": "transferPayout",
      "outputs": [],
      "stateMutability": "payable",
      "type": "function"
    },
    {
      "stateMutability": "payable",
      "type": "receive"
    }
  ],
  "bytecode": "0x6101e060405260006080908152600860a052600560c052600360e05260026101005260016101208190526101408190526101608190526101808190526101a08190526101c08190526200005491600b620002c7565b506001805462000065919062000392565b600255604080516101a081018252600081526601c6bf52634000602082015266027ca57357c0009181019190915266038d7ea4c6800060608201526604f94ae6af8000608082015266071afd498d000060a08201526609f295cd5f000060c0820152660e35fa931a000060e082015266138a388a43c000610100820152661c6bf52634000061012082015266271471148780006101408201526638d7ea4c680000610160820152664e28e2290f00006101808201526200012a90600590600d6200031c565b506005546006553480156200013e57600080fd5b5060405162002624380380620026248339810160408190526200016191620003ac565b600380546001600160a01b0319908116339081178355600480546001600160a01b03868116918516919091179091556000918252600760209081526040808420600190819055865484168552818520429082015586548416855290842086018054861690559454948352600890527fad67d757c34507f157cacfa2e3153e9f260a2244f30428821be7be64587ac55f80549093169316929092179055600b8054916200020d83620003de565b9091555050600c80549060006200022483620003de565b90915550600190505b6006548160ff1611620002bf57600380546001600160a01b03908116600090815260076020908152604080832060ff8716845260040182528083208501805460ff60201b191664010000000017905560098252822093548454600181018655948352912090920180546001600160a01b0319169290911691909117905580620002b681620003fc565b9150506200022d565b50506200041f565b8280548282559060005260206000209081019282156200030a579160200282015b828111156200030a578251829060ff16905591602001919060010190620002e8565b506200031892915062000365565b5090565b8280548282559060005260206000209081019282156200030a579160200282015b828111156200030a578251829066ffffffffffffff169055916020019190600101906200033d565b5b8082111562000318576000815560010162000366565b634e487b7160e01b600052601160045260246000fd5b600082821015620003a757620003a76200037c565b500390565b600060208284031215620003bf57600080fd5b81516001600160a01b0381168114620003d757600080fd5b9392505050565b6000600019821415620003f557620003f56200037c565b5060010190565b600060ff821660ff8114156200041657620004166200037c565b60010192915050565b6121f5806200042f6000396000f3fe6080604052600436106101435760003560e01c8063597e4734116100b6578063aad049b31161006f578063aad049b314610483578063bd4616f4146104a3578063bd4b77ee146104c3578063ccea631414610506578063d716703d14610558578063f517bd2b1461057b57600080fd5b8063597e4734146103cc5780638a03ad86146103df5780638d17a4d0146104155780638da5cb5b14610428578063968763a0146104485780639b96eece1461045b57600080fd5b80632a2c908e116101085780632a2c908e146102d55780632eeb31e5146102f7578063310465b314610317578063385399f91461033b578063409df7421461037f5780634a9fefc7146103ac57600080fd5b8062cd6d5c146102265780631627905514610239578063163f7522146102755780631aa3a008146102955780632996f9721461029d57600080fd5b3661022157610151336105a2565b61015f5761015d6105bf565b005b60015b6006548160ff16116101b5573460058260ff168154811061018557610185611eec565b906000526020600020015414156101a35761019f816105d6565b5050005b806101ad81611f18565b915050610162565b5060405162461bcd60e51b815260206004820152603560248201527f43616e27742066696e64206c6576656c20746f206275792e204d61796265207360448201527432b73a103b30b63ab29034b99034b73b30b634b21760591b60648201526084015b60405180910390fd5b600080fd5b61015d610234366004611f38565b610c02565b34801561024557600080fd5b50610260610254366004611f79565b3b63ffffffff16151590565b60405190151581526020015b60405180910390f35b34801561028157600080fd5b50610260610290366004611f79565b6105a2565b61015d6105bf565b3480156102a957600080fd5b506004546102bd906001600160a01b031681565b6040516001600160a01b03909116815260200161026c565b3480156102e157600080fd5b506102ea6110c4565b60405161026c9190611f94565b34801561030357600080fd5b506102bd610312366004611fc5565b6110f1565b34801561032357600080fd5b5061032c611170565b60405161026c9392919061202a565b34801561034757600080fd5b50610371610356366004611f79565b6001600160a01b031660009081526007602052604090205490565b60405190815260200161026c565b34801561038b57600080fd5b5061039f61039a366004611f38565b611342565b60405161026c9190612098565b3480156103b857600080fd5b506102bd6103c7366004611f79565b611440565b6102606103da3660046120ab565b6114b2565b3480156103eb57600080fd5b506102bd6103fa3660046120ab565b6000908152600860205260409020546001600160a01b031690565b610260610423366004611f38565b6105d6565b34801561043457600080fd5b506003546102bd906001600160a01b031681565b61015d610456366004611f79565b611539565b34801561046757600080fd5b50610371610476366004611f79565b6001600160a01b03163190565b34801561048f57600080fd5b5061037161049e3660046120ab565b611833565b3480156104af57600080fd5b506103716104be3660046120ab565b611854565b3480156104cf57600080fd5b506103716104de366004611f79565b6001600160a01b03908116600090815260076020526040808220600301549092168152205490565b34801561051257600080fd5b5061051b611864565b604080519788526020880196909652948601939093526001600160a01b039091166060850152608084015260a083015260c082015260e00161026c565b34801561056457600080fd5b5061056d61193a565b60405161026c9291906120c4565b34801561058757600080fd5b50610590600381565b60405160ff909116815260200161026c565b6001600160a01b0316600090815260076020526040902054151590565b6003546105d4906001600160a01b0316611539565b565b6000805460ff161561062a5760405162461bcd60e51b815260206004820152601f60248201527f5265656e7472616e637947756172643a207265656e7472616e742063616c6c006044820152606401610218565b6000805460ff19166001179055610640336105a2565b6106855760405162461bcd60e51b8152602060048201526016602482015275155cd95c881a5cc81b9bdd081c9959da5cdd195c995960521b6044820152606401610218565b60008260ff1611801561069d57506006548260ff1611155b6106d95760405162461bcd60e51b815260206004820152600d60248201526c125b9d985b1a59081b195d995b609a1b6044820152606401610218565b3460058360ff16815481106106f0576106f0611eec565b90600052602060002001541461073c5760405162461bcd60e51b8152602060048201526011602482015270496e76616c696420424e422076616c756560781b6044820152606401610218565b333b63ffffffff16156107895760405162461bcd60e51b815260206004820152601560248201527410d85b881b9bdd08189948184818dbdb9d1c9858dd605a1b6044820152606401610218565b610796338360ff16611ac7565b600c80549060006107a6836120e6565b919050555034600b60020160008282546107c09190612101565b909155505033600090815260076020908152604080832060ff80871685526004909101909252909120600301546401000000009004166108bb5733600081815260076020908152604080832060ff87168452600401909152902060038101805464ff000000001916640100000000179055426002909101556108429083611b7d565b60ff8216600081815260096020908152604080832080546001810182559084528284200180546001600160a01b031916339081179091558352600782529182902054915192835290917f4ca9aae0bcfd6d092d32c37441e66f64b394013f781f2367824e154099603565910160405180910390a2610903565b60405162461bcd60e51b815260206004820152601760248201527f4c6576656c20697320616c726561647920626f756768740000000000000000006044820152606401610218565b60ff821660009081526009602052604081208054829061092557610925611eec565b6000918252602090912001546003546001600160a01b039182169250168114610aa5576001600160a01b038116600090815260076020908152604080832060ff8716808552600491820180855283862060038101805461ffff90811689529190940186529386206001908101805460ff19169091179055908552909252815416916109af8361212f565b82546101009290920a61ffff8181021990931691831602179091556001600160a01b038316600090815260076020908152604080832060ff89168452600401909152902060039081015490911614159050610aa5576001600160a01b038116600090815260076020908152604080832060ff871684526004019091529020600301805464ff0000ffff19169055610a468184611b7d565b6001600160a01b038116600090815260076020526040908190205490517fae9c7cc1b10b0aa2e208296b682cc0000383f83093814233542a7c2eaf7e27d591610a9c91869091825260ff16602082015260400190565b60405180910390a15b610aae83611be2565b6000606460058560ff1681548110610ac857610ac8611eec565b9060005260206000200154610add9190612151565b905060015b6002548160ff1611610b4057600060018260ff1681548110610b0657610b06611eec565b906000526020600020015483610b1c9190612173565b9050610b2d338360ff168884611d4a565b5080610b3881611f18565b915050610ae2565b506004546000906001600160a01b0316610b5b836002612173565b604051600081818185875af1925050503d8060008114610b97576040519150601f19603f3d011682016040523d82523d6000602084013e610b9c565b606091505b5050905080610bed5760405162461bcd60e51b815260206004820152601e60248201527f746f6b656e206275726e206661696c656420746f20627579206c6576656c00006044820152606401610218565b50506000805460ff1916905550600192915050565b610c0b336105a2565b610c4a5760405162461bcd60e51b815260206004820152601060248201526f283632b0b9b296103932b3b4b9ba32b960811b6044820152606401610218565b33600090815260076020908152604080832060ff85168452600401909152902060020154610c7990603c612101565b421015610cc85760405162461bcd60e51b815260206004820152601b60248201527f323420686f75727320646964206e6f74206578706972652079657400000000006044820152606401610218565b33600090815260076020908152604080832060ff8086168552600490910190925290912060030154640100000000900416610d455760405162461bcd60e51b815260206004820152601e60248201527f596f752068617665206e6f7420626f756768742074686973206c6576656c00006044820152606401610218565b33600090815260076020908152604080832060ff85168085526004909101909252822060020154600580549193926064928110610d8457610d84611eec565b9060005260206000200154610d999190612151565b90506000610da882604a612173565b905060005b600361ffff821610156110bd57600233600090815260076020908152604080832060ff808b1685526004918201845282852061ffff8816865290910190925290912060010154166002811115610e0557610e05612119565b1415610e425733600090815260076020908152604080832060ff891684526004908101835281842061ffff861685520190915290205493506110ab565b600133600090815260076020908152604080832060ff808b1685526004918201845282852061ffff8816865290910190925290912060010154166002811115610e8d57610e8d612119565b14610ec85760405162461bcd60e51b815260206004820152600b60248201526a139bdd0819dc985b9d195960aa1b6044820152606401610218565b610ed384603c612101565b421015610f225760405162461bcd60e51b815260206004820152601b60248201527f31206d696e75746520646964206e6f74206578706972652079657400000000006044820152606401610218565b604051600090339084156108fc0290859084818181858888f19350505050905080156110695733600090815260076020908152604080832060ff8a16808552600491820180855283862061ffff891687529283018552928520428155600101805460ff19166002179055845291528054859290610fa0908490612101565b909155505033600090815260076020908152604080832060ff8a1684526004019091529020600301805462010000900461ffff16906002610fe08361212f565b825461ffff9182166101009390930a92830291909202199091161790555033600090815260076020526040908190205490517fb970429b721aab5042efe513b75b71cd07615fdff866744e3d07dfe5998ffc669161105c9189908790839093845260ff9290921660208401526040830152606082015260800190565b60405180910390a16110a5565b6003546040516001600160a01b039091169084156108fc029085906000818181858888f193505050501580156110a3573d6000803e3d6000fd5b505b506110bd565b806110b58161212f565b915050610dad565b5050505050565b6110cc611ece565b5060408051606081018252600b548152600c546020820152600d549181019190915290565b6001600160a01b038083166000908152600760205260408120600301549091600191165b83821415801561113357506003546001600160a01b03828116911614155b15611168576001600160a01b039081166000908152600760205260409020600301541681611160816120e6565b925050611115565b505092915050565b6060806060600060065460016111869190612101565b67ffffffffffffffff81111561119e5761119e612192565b6040519080825280602002602001820160405280156111c7578160200160208202803683370190505b509050600060065460016111db9190612101565b67ffffffffffffffff8111156111f3576111f3612192565b60405190808252806020026020018201604052801561121c578160200160208202803683370190505b50905060015b6006548160ff16116112de5733600090815260076020908152604080832060ff80861680865260049092019093529220600301548551640100000000909104909116918591811061127557611275611eec565b91151560209283029190910182015233600090815260078252604080822060ff85168084526004909101909352902060030154835161ffff90911691849181106112c1576112c1611eec565b6020908102919091010152806112d681611f18565b915050611222565b50818160058080548060200260200160405190810160405280929190818152602001828054801561132e57602002820191906000526020600020905b81548152602001906001019080831161131a575b505050505090509450945094505050909192565b60ff81166000908152600960205260408120546060919067ffffffffffffffff81111561137157611371612192565b60405190808252806020026020018201604052801561139a578160200160208202803683370190505b50905060005b60ff84166000908152600960205260409020548110156114395760ff8416600090815260096020526040812080546007929190849081106113e3576113e3611eec565b60009182526020808320909101546001600160a01b03168352820192909252604001902054825183908390811061141c5761141c611eec565b602090810291909101015280611431816120e6565b9150506113a0565b5092915050565b600061144b826105a2565b6114905760405162461bcd60e51b8152602060048201526016602482015275155cd95c881a5cc81b9bdd081c9959da5cdd195c995960521b6044820152606401610218565b506001600160a01b039081166000908152600760205260409020600301541690565b6003546000906001600160a01b03163314806114d857506004546001600160a01b031633145b6115135760405162461bcd60e51b815260206004820152600c60248201526b2737ba1030b71037bbb732b960a11b6044820152606401610218565b604051600090339084156108fc0290859084818181858888f1955050505050505b919050565b346658d15e17628000146115845760405162461bcd60e51b8152602060048201526012602482015271125b9d985b1a59081d985b1d59481cd95b9d60721b6044820152606401610218565b61158d336105a2565b156115da5760405162461bcd60e51b815260206004820152601760248201527f5573657220616c726561647920726567697374657265640000000000000000006044820152606401610218565b333b63ffffffff16156116275760405162461bcd60e51b815260206004820152601560248201527410d85b881b9bdd08189948184818dbdb9d1c9858dd605a1b6044820152606401610218565b600b8054906000611637836120e6565b9091555050600b5433600081815260076020908152604080832085815542600180830191909155600390910180546001600160a01b0389166001600160a01b03199182161790915595845260089092529091208054909316909117909155815b6002548260ff16111580156116b457506001600160a01b03811615155b15611715576001600160a01b03811660009081526007602052604081206002018054916116e0836120e6565b90915550506001600160a01b03908116600090815260076020526040902060030154168161170d81611f18565b925050611697565b6004546040516000916001600160a01b03169034908381818185875af1925050503d8060008114611762576040519150601f19603f3d011682016040523d82523d6000602084013e611767565b606091505b50509050806117c45760405162461bcd60e51b8152602060048201526024808201527f746f6b656e206275726e206661696c6564207768696c652072656769737472616044820152633a34b7b760e11b6064820152608401610218565b600c80549060006117d4836120e6565b9091555050336000908152600760209081526040808320546001600160a01b0388168452928190205490519081527fe6b34214a32a78e29411662ba4d4be9a6d67ca3577a746c3cdc0c53e4694f09a910160405180910390a250505050565b6005818154811061184357600080fd5b600091825260209091200154905081565b6001818154811061184357600080fd5b6000808080808080808060015b6006548160ff16116118ed5733600090815260076020908152604080832060ff851684526004019091529020546118a89084612101565b33600090815260076020908152604080832060ff861684526004019091529020600101549093506118d99083612101565b9150806118e581611f18565b915050611871565b50336000818152600760205260408082208054600182015460038301546001600160a01b03168086529385205495909452600290910154909d929c50929a50985090965091945092509050565b6060600080600654600161194e9190612101565b67ffffffffffffffff81111561196657611966612192565b60405190808252806020026020018201604052801561198f578160200160208202803683370190505b50905060005b6006548160ff1611611abe5733600090815260076020908152604080832060ff851680855260049091019092529091206002015483519091849181106119dd576119dd611eec565b60200260200101818152505060005b60028160ff1611611aab57600233600090815260076020908152604080832060ff808816855260049182018452828520878216865290910190925290912060010154166002811115611a4057611a40612119565b1415611a995733600090815260076020908152604080832060ff8087168086526004928301855283862091871686529101909252909120548451909185918110611a8c57611a8c611eec565b6020026020010181815250505b80611aa381611f18565b9150506119ec565b5080611ab681611f18565b915050611995565b50924292509050565b60015b818160ff161015611b78576001600160a01b038316600090815260076020908152604080832060ff8086168552600490910190925290912060030154640100000000900416611b665760405162461bcd60e51b815260206004820152602260248201527f416c6c2070726576696f7573206c6576656c73206d7573742062652061637469604482015261766560f01b6064820152608401610218565b80611b7081611f18565b915050611aca565b505050565b60005b60038161ffff161015611b78576001600160a01b038316600090815260076020908152604080832060ff861684526004908101835281842061ffff86168552019091529020600101805460ff1916905580611bda8161212f565b915050611b80565b60005b60ff8216600090815260096020526040902054611c04906001906121a8565b811015611d465760ff82166000908152600960205260408120805483908110611c2f57611c2f611eec565b600091825260208083209091015460ff86168352600990915260409091206001600160a01b039091169150611c65836001612101565b81548110611c7557611c75611eec565b600091825260208083209091015460ff861683526009909152604090912080546001600160a01b039092169184908110611cb157611cb1611eec565b600091825260208083209190910180546001600160a01b0319166001600160a01b03949094169390931790925560ff851681526009909152604090208190611cfa846001612101565b81548110611d0a57611d0a611eec565b600091825260209091200180546001600160a01b0319166001600160a01b03929092169190911790555080611d3e816120e6565b915050611be5565b5050565b60008311611d9a5760405162461bcd60e51b815260206004820152601e60248201527f4c696e65206d7573742062652067726561746572207468616e207a65726f00006044820152606401610218565b6000611da685856110f1565b90506000816001600160a01b03166108fc849081150290604051600060405180830381858888f1935050505090508015611e8a576001600160a01b038216600090815260076020908152604080832060ff8816845260040190915281206001018054859290611e16908490612101565b90915550506001600160a01b03828116600090815260076020908152604080832054938a168352918290205482519384529083015260ff86168282015260608201859052517f6d8172da503639a6daa587046b28564afbee4369eca5d54e7551a07a591db5339181900360800190a1611ec6565b6003546040516001600160a01b039091169084156108fc029085906000818181858888f19350505050158015611ec4573d6000803e3d6000fd5b505b505050505050565b60405180606001604052806003906020820280368337509192915050565b634e487b7160e01b600052603260045260246000fd5b634e487b7160e01b600052601160045260246000fd5b600060ff821660ff811415611f2f57611f2f611f02565b60010192915050565b600060208284031215611f4a57600080fd5b813560ff81168114611f5b57600080fd5b9392505050565b80356001600160a01b038116811461153457600080fd5b600060208284031215611f8b57600080fd5b611f5b82611f62565b60608101818360005b6003811015611fbc578151835260209283019290910190600101611f9d565b50505092915050565b60008060408385031215611fd857600080fd5b611fe183611f62565b946020939093013593505050565b600081518084526020808501945080840160005b8381101561201f57815187529582019590820190600101612003565b509495945050505050565b606080825284519082018190526000906020906080840190828801845b82811015612065578151151584529284019290840190600101612047565b505050838103828501526120798187611fef565b915050828103604084015261208e8185611fef565b9695505050505050565b602081526000611f5b6020830184611fef565b6000602082840312156120bd57600080fd5b5035919050565b6040815260006120d76040830185611fef565b90508260208301529392505050565b60006000198214156120fa576120fa611f02565b5060010190565b6000821982111561211457612114611f02565b500190565b634e487b7160e01b600052602160045260246000fd5b600061ffff8083168181141561214757612147611f02565b6001019392505050565b60008261216e57634e487b7160e01b600052601260045260246000fd5b500490565b600081600019048311821515161561218d5761218d611f02565b500290565b634e487b7160e01b600052604160045260246000fd5b6000828210156121ba576121ba611f02565b50039056fea26469706673582212208bd95d63d2fed69b102b4622a73d02e054650095593d324f877f8e9859157cf364736f6c63430008090033",
  "linkReferences": {},
  "deployedLinkReferences": {}
}